{
  "_format": "hh-sol-artifact-1",
  "contractName": "SmartContract",
  "sourceName": "contracts/SmartContract.sol",
  "abi": [
    {
      "inputs": [
        {
          "internalType": "uint256",
          "name": "",
          "type": "uint256"
        }
      ],
      "name": "courses",
      "outputs": [
        {
          "internalType": "address",
          "name": "owner",
          "type": "address"
        },
        {
          "internalType": "string",
          "name": "title",
          "type": "string"
        },
        {
          "internalType": "string",
          "name": "description",
          "type": "string"
        },
        {
          "internalType": "uint256",
          "name": "target",
          "type": "uint256"
        },
        {
          "internalType": "uint256",
          "name": "deadline",
          "type": "uint256"
        },
        {
          "internalType": "uint256",
          "name": "amountCollected",
          "type": "uint256"
        }
      ],
      "stateMutability": "view",
      "type": "function"
    },
    {
      "inputs": [
        {
          "internalType": "address",
          "name": "_owner",
          "type": "address"
        },
        {
          "internalType": "string",
          "name": "_title",
          "type": "string"
        },
        {
          "internalType": "string",
          "name": "_description",
          "type": "string"
        },
        {
          "internalType": "uint256",
          "name": "_target",
          "type": "uint256"
        },
        {
          "internalType": "uint256",
          "name": "_deadline",
          "type": "uint256"
        }
      ],
      "name": "createCourse",
      "outputs": [
        {
          "internalType": "uint256",
          "name": "",
          "type": "uint256"
        }
      ],
      "stateMutability": "nonpayable",
      "type": "function"
    },
    {
      "inputs": [],
      "name": "getCourses",
      "outputs": [
        {
          "components": [
            {
              "internalType": "address",
              "name": "owner",
              "type": "address"
            },
            {
              "internalType": "string",
              "name": "title",
              "type": "string"
            },
            {
              "internalType": "string",
              "name": "description",
              "type": "string"
            },
            {
              "internalType": "uint256",
              "name": "target",
              "type": "uint256"
            },
            {
              "internalType": "uint256",
              "name": "deadline",
              "type": "uint256"
            },
            {
              "internalType": "uint256",
              "name": "amountCollected",
              "type": "uint256"
            },
            {
              "internalType": "address[]",
              "name": "paidMembers",
              "type": "address[]"
            }
          ],
          "internalType": "struct SmartContract.Course[]",
          "name": "",
          "type": "tuple[]"
        }
      ],
      "stateMutability": "view",
      "type": "function"
    },
    {
      "inputs": [
        {
          "internalType": "uint256",
          "name": "_id",
          "type": "uint256"
        }
      ],
      "name": "getPaidMembers",
      "outputs": [
        {
          "internalType": "address[]",
          "name": "",
          "type": "address[]"
        }
      ],
      "stateMutability": "view",
      "type": "function"
    },
    {
      "inputs": [],
      "name": "noOfCourses",
      "outputs": [
        {
          "internalType": "uint256",
          "name": "",
          "type": "uint256"
        }
      ],
      "stateMutability": "view",
      "type": "function"
    },
    {
      "inputs": [
        {
          "internalType": "uint256",
          "name": "_id",
          "type": "uint256"
        }
      ],
      "name": "payForCourse",
      "outputs": [],
      "stateMutability": "payable",
      "type": "function"
    }
  ],
  "bytecode": "0x6080604052600060015534801561001557600080fd5b50610c07806100256000396000f3fe6080604052600436106100555760003560e01c8063116c60801461005a578063524331711461009057806396f979d2146100b4578063cc126479146100e6578063d012e42d14610108578063e6e09b8c14610128575b600080fd5b34801561006657600080fd5b5061007a6100753660046106e2565b61013d565b60405161008791906106fb565b60405180910390f35b34801561009c57600080fd5b506100a660015481565b604051908152602001610087565b3480156100c057600080fd5b506100d46100cf3660046106e2565b6101aa565b6040516100879695949392919061078e565b3480156100f257600080fd5b506100fb6102f9565b60405161008791906107e3565b34801561011457600080fd5b506100a6610123366004610989565b6105ac565b61013b6101363660046106e2565b610638565b005b6000818152602081815260409182902060060180548351818402810184019094528084526060939283018282801561019e57602002820191906000526020600020905b81546001600160a01b03168152600190910190602001808311610180575b50505050509050919050565b600060208190529081526040902080546001820180546001600160a01b0390921692916101d690610a1d565b80601f016020809104026020016040519081016040528092919081815260200182805461020290610a1d565b801561024f5780601f106102245761010080835404028352916020019161024f565b820191906000526020600020905b81548152906001019060200180831161023257829003601f168201915b50505050509080600201805461026490610a1d565b80601f016020809104026020016040519081016040528092919081815260200182805461029090610a1d565b80156102dd5780601f106102b2576101008083540402835291602001916102dd565b820191906000526020600020905b8154815290600101906020018083116102c057829003601f168201915b5050505050908060030154908060040154908060050154905086565b6060600060015467ffffffffffffffff811115610318576103186108e6565b60405190808252806020026020018201604052801561039257816020015b61037f6040518060e0016040528060006001600160a01b031681526020016060815260200160608152602001600081526020016000815260200160008152602001606081525090565b8152602001906001900390816103365790505b50905060005b6001548110156105a65760008181526020818152604091829020825160e0810190935280546001600160a01b03168352600181018054919392849290840191906103e190610a1d565b80601f016020809104026020016040519081016040528092919081815260200182805461040d90610a1d565b801561045a5780601f1061042f5761010080835404028352916020019161045a565b820191906000526020600020905b81548152906001019060200180831161043d57829003601f168201915b5050505050815260200160028201805461047390610a1d565b80601f016020809104026020016040519081016040528092919081815260200182805461049f90610a1d565b80156104ec5780601f106104c1576101008083540402835291602001916104ec565b820191906000526020600020905b8154815290600101906020018083116104cf57829003601f168201915b505050505081526020016003820154815260200160048201548152602001600582015481526020016006820180548060200260200160405190810160405280929190818152602001828054801561056c57602002820191906000526020600020905b81546001600160a01b0316815260019091019060200180831161054e575b50505050508152505083838151811061058757610587610a51565b602002602001018190525050808061059e90610a7d565b915050610398565b50919050565b60018054600090815260208190526040812080546001600160a01b0319166001600160a01b038916178155909181016105e58782610ae5565b506004810183905560038101849055600281016106028682610ae5565b50600060058201819055600180549161061a83610a7d565b91905055506001805461062d9190610ba5565b979650505050505050565b60008181526020818152604080832060068101805460018101825590855292842090920180546001600160a01b03191633179055815490513493916001600160a01b03169084908381818185875af1925050503d80600081146106b7576040519150601f19603f3d011682016040523d82523d6000602084013e6106bc565b606091505b5050905080156106dc578282600501546106d69190610bbe565b60058301555b50505050565b6000602082840312156106f457600080fd5b5035919050565b6020808252825182820181905260009190848201906040850190845b8181101561073c5783516001600160a01b031683529284019291840191600101610717565b50909695505050505050565b6000815180845260005b8181101561076e57602081850181015186830182015201610752565b506000602082860101526020601f19601f83011685010191505092915050565b6001600160a01b038716815260c0602082018190526000906107b290830188610748565b82810360408401526107c48188610748565b60608401969096525050608081019290925260a0909101529392505050565b60006020808301818452808551808352604092508286019150828160051b8701018488016000805b848110156108d757898403603f19018652825180516001600160a01b0390811686528982015160e08b8801819052919061084783890182610748565b925050898301518783038b89015261085f8382610748565b606085810151908a0152608080860151908a015260a080860151908a015260c094850151898203958a01959095528451808252948d0194879450908d0191505b808410156108c157845183168252938c019360019390930192908c019061089f565b50988b019896505050928801925060010161080b565b50919998505050505050505050565b634e487b7160e01b600052604160045260246000fd5b600082601f83011261090d57600080fd5b813567ffffffffffffffff80821115610928576109286108e6565b604051601f8301601f19908116603f01168101908282118183101715610950576109506108e6565b8160405283815286602085880101111561096957600080fd5b836020870160208301376000602085830101528094505050505092915050565b600080600080600060a086880312156109a157600080fd5b85356001600160a01b03811681146109b857600080fd5b9450602086013567ffffffffffffffff808211156109d557600080fd5b6109e189838a016108fc565b955060408801359150808211156109f757600080fd5b50610a04888289016108fc565b9598949750949560608101359550608001359392505050565b600181811c90821680610a3157607f821691505b6020821081036105a657634e487b7160e01b600052602260045260246000fd5b634e487b7160e01b600052603260045260246000fd5b634e487b7160e01b600052601160045260246000fd5b600060018201610a8f57610a8f610a67565b5060010190565b601f821115610ae057600081815260208120601f850160051c81016020861015610abd5750805b601f850160051c820191505b81811015610adc57828155600101610ac9565b5050505b505050565b815167ffffffffffffffff811115610aff57610aff6108e6565b610b1381610b0d8454610a1d565b84610a96565b602080601f831160018114610b485760008415610b305750858301515b600019600386901b1c1916600185901b178555610adc565b600085815260208120601f198616915b82811015610b7757888601518255948401946001909101908401610b58565b5085821015610b955787850151600019600388901b60f8161c191681555b5050505050600190811b01905550565b81810381811115610bb857610bb8610a67565b92915050565b80820180821115610bb857610bb8610a6756fea26469706673582212205f9f25529dfe75b0abe2e83c556445ffc7ab9c4878aa03102c2b6c540ed91a0064736f6c63430008110033",
  "linkReferences": {},
  "deployedLinkReferences": {}
}